{
    "_format": "hh-sol-artifact-1",
    "contractName": "BlockbellyUniswapBroker",
    "sourceName": "contracts/broker/UniswapBroker.sol",
    "abi": [
        {
            "anonymous": false,
            "inputs": [
                {
                    "indexed": true,
                    "internalType": "address",
                    "name": "previousOwner",
                    "type": "address"
                },
                {
                    "indexed": true,
                    "internalType": "address",
                    "name": "newOwner",
                    "type": "address"
                }
            ],
            "name": "OwnershipTransferred",
            "type": "event"
        },
        {
            "inputs": [
                {
                    "internalType": "string",
                    "name": "_name",
                    "type": "string"
                },
                {
                    "internalType": "string",
                    "name": "_symbol",
                    "type": "string"
                },
                {
                    "internalType": "string",
                    "name": "_cgId",
                    "type": "string"
                },
                {
                    "internalType": "address",
                    "name": "_tkOutAddr",
                    "type": "address"
                },
                {
                    "internalType": "address",
                    "name": "_tkInAddr",
                    "type": "address"
                },
                {
                    "internalType": "uint24",
                    "name": "_poolFee",
                    "type": "uint24"
                },
                {
                    "internalType": "address",
                    "name": "_prOracleAddr",
                    "type": "address"
                },
                {
                    "internalType": "bool",
                    "name": "_invOraclePrice",
                    "type": "bool"
                }
            ],
            "name": "addIndex",
            "outputs": [
                {
                    "internalType": "address",
                    "name": "brokerIndexAddr",
                    "type": "address"
                }
            ],
            "stateMutability": "nonpayable",
            "type": "function"
        },
        {
            "inputs": [
                {
                    "internalType": "address",
                    "name": "_tokenOutAddress",
                    "type": "address"
                },
                {
                    "internalType": "uint256",
                    "name": "_deadline",
                    "type": "uint256"
                }
            ],
            "name": "buyIndexWithETH",
            "outputs": [
                {
                    "internalType": "uint256",
                    "name": "amountOut",
                    "type": "uint256"
                },
                {
                    "internalType": "uint256",
                    "name": "platformFee",
                    "type": "uint256"
                }
            ],
            "stateMutability": "payable",
            "type": "function"
        },
        {
            "inputs": [],
            "name": "getIndices",
            "outputs": [
                {
                    "components": [
                        {
                            "internalType": "string",
                            "name": "name",
                            "type": "string"
                        },
                        {
                            "internalType": "string",
                            "name": "symbol",
                            "type": "string"
                        },
                        {
                            "internalType": "string",
                            "name": "cgId",
                            "type": "string"
                        },
                        {
                            "internalType": "address",
                            "name": "tkOutAddr",
                            "type": "address"
                        },
                        {
                            "internalType": "address",
                            "name": "tkInAddr",
                            "type": "address"
                        },
                        {
                            "internalType": "uint24",
                            "name": "poolFee",
                            "type": "uint24"
                        },
                        {
                            "internalType": "address",
                            "name": "prOracleAddr",
                            "type": "address"
                        },
                        {
                            "internalType": "bool",
                            "name": "invOraclePrice",
                            "type": "bool"
                        }
                    ],
                    "internalType": "struct BrokerIndex[]",
                    "name": "indices",
                    "type": "tuple[]"
                }
            ],
            "stateMutability": "view",
            "type": "function"
        },
        {
            "inputs": [
                {
                    "internalType": "address",
                    "name": "_swapAddress",
                    "type": "address"
                },
                {
                    "internalType": "uint16",
                    "name": "_version",
                    "type": "uint16"
                }
            ],
            "name": "initialize",
            "outputs": [
                {
                    "internalType": "address",
                    "name": "brokerAddress",
                    "type": "address"
                }
            ],
            "stateMutability": "nonpayable",
            "type": "function"
        },
        {
            "inputs": [],
            "name": "owner",
            "outputs": [
                {
                    "internalType": "address",
                    "name": "",
                    "type": "address"
                }
            ],
            "stateMutability": "view",
            "type": "function"
        },
        {
            "inputs": [],
            "name": "renounceOwnership",
            "outputs": [],
            "stateMutability": "nonpayable",
            "type": "function"
        },
        {
            "inputs": [
                {
                    "internalType": "address",
                    "name": "newOwner",
                    "type": "address"
                }
            ],
            "name": "transferOwnership",
            "outputs": [],
            "stateMutability": "nonpayable",
            "type": "function"
        },
        {
            "stateMutability": "payable",
            "type": "receive"
        }
    ],
    "bytecode": "0x608060405234801561001057600080fd5b5061002d61002261003260201b60201c565b61003a60201b60201c565b6100fe565b600033905090565b60008060009054906101000a900473ffffffffffffffffffffffffffffffffffffffff169050816000806101000a81548173ffffffffffffffffffffffffffffffffffffffff021916908373ffffffffffffffffffffffffffffffffffffffff1602179055508173ffffffffffffffffffffffffffffffffffffffff168173ffffffffffffffffffffffffffffffffffffffff167f8be0079c531659141344cd1fd0a4f28419497f9722a3daafe3b4186f6b6457e060405160405180910390a35050565b6121dd806200010e6000396000f3fe6080604052600436106100745760003560e01c80638da5cb5b1161004e5780638da5cb5b146100ff578063f2fde38b1461012a578063f39e69a414610153578063fbe50727146101905761007b565b8063545accb7146100805780635863056d146100bd578063715018a6146100e85761007b565b3661007b57005b600080fd5b34801561008c57600080fd5b506100a760048036038101906100a291906116b6565b6101c1565b6040516100b49190611b91565b60405180910390f35b3480156100c957600080fd5b506100d2610618565b6040516100df9190611bac565b60405180910390f35b3480156100f457600080fd5b506100fd61096e565b005b34801561010b57600080fd5b506101146109f6565b6040516101219190611b91565b60405180910390f35b34801561013657600080fd5b50610151600480360381019061014c9190611615565b610a1f565b005b34801561015f57600080fd5b5061017a6004803603810190610175919061163e565b610b17565b6040516101879190611b91565b60405180910390f35b6101aa60048036038101906101a5919061167a565b610bea565b6040516101b8929190611cca565b60405180910390f35b60006101cb611332565b73ffffffffffffffffffffffffffffffffffffffff166101e96109f6565b73ffffffffffffffffffffffffffffffffffffffff161461023f576040517f08c379a000000000000000000000000000000000000000000000000000000000815260040161023690611c2e565b60405180910390fd5b6102476113fe565b89816000018190525088816020018190525087816040018190525086816060019073ffffffffffffffffffffffffffffffffffffffff16908173ffffffffffffffffffffffffffffffffffffffff168152505085816080019073ffffffffffffffffffffffffffffffffffffffff16908173ffffffffffffffffffffffffffffffffffffffff1681525050848160a0019062ffffff16908162ffffff1681525050838160c0019073ffffffffffffffffffffffffffffffffffffffff16908173ffffffffffffffffffffffffffffffffffffffff1681525050828160e0019015159081151581525050600260008873ffffffffffffffffffffffffffffffffffffffff1673ffffffffffffffffffffffffffffffffffffffff16815260200190815260200160002060009054906101000a900460ff16156103bd576040517f08c379a00000000000000000000000000000000000000000000000000000000081526004016103b490611c6e565b60405180910390fd5b8691506001600260008973ffffffffffffffffffffffffffffffffffffffff1673ffffffffffffffffffffffffffffffffffffffff16815260200190815260200160002060006101000a81548160ff0219169083151502179055506001819080600181540180825580915050600190039060005260206000209060060201600090919091909150600082015181600001908051906020019061046092919061148c565b50602082015181600101908051906020019061047d92919061148c565b50604082015181600201908051906020019061049a92919061148c565b5060608201518160030160006101000a81548173ffffffffffffffffffffffffffffffffffffffff021916908373ffffffffffffffffffffffffffffffffffffffff16021790555060808201518160040160006101000a81548173ffffffffffffffffffffffffffffffffffffffff021916908373ffffffffffffffffffffffffffffffffffffffff16021790555060a08201518160040160146101000a81548162ffffff021916908362ffffff16021790555060c08201518160050160006101000a81548173ffffffffffffffffffffffffffffffffffffffff021916908373ffffffffffffffffffffffffffffffffffffffff16021790555060e08201518160050160146101000a81548160ff0219169083151502179055505050600180805490506105c89190611e10565b600360008973ffffffffffffffffffffffffffffffffffffffff1673ffffffffffffffffffffffffffffffffffffffff168152602001908152602001600020819055505098975050505050505050565b60606001805480602002602001604051908101604052809291908181526020016000905b8282101561096557838290600052602060002090600602016040518061010001604052908160008201805461067090611eeb565b80601f016020809104026020016040519081016040528092919081815260200182805461069c90611eeb565b80156106e95780601f106106be576101008083540402835291602001916106e9565b820191906000526020600020905b8154815290600101906020018083116106cc57829003601f168201915b5050505050815260200160018201805461070290611eeb565b80601f016020809104026020016040519081016040528092919081815260200182805461072e90611eeb565b801561077b5780601f106107505761010080835404028352916020019161077b565b820191906000526020600020905b81548152906001019060200180831161075e57829003601f168201915b5050505050815260200160028201805461079490611eeb565b80601f01602080910402602001604051908101604052809291908181526020018280546107c090611eeb565b801561080d5780601f106107e25761010080835404028352916020019161080d565b820191906000526020600020905b8154815290600101906020018083116107f057829003601f168201915b505050505081526020016003820160009054906101000a900473ffffffffffffffffffffffffffffffffffffffff1673ffffffffffffffffffffffffffffffffffffffff1673ffffffffffffffffffffffffffffffffffffffff1681526020016004820160009054906101000a900473ffffffffffffffffffffffffffffffffffffffff1673ffffffffffffffffffffffffffffffffffffffff1673ffffffffffffffffffffffffffffffffffffffff1681526020016004820160149054906101000a900462ffffff1662ffffff1662ffffff1681526020016005820160009054906101000a900473ffffffffffffffffffffffffffffffffffffffff1673ffffffffffffffffffffffffffffffffffffffff1673ffffffffffffffffffffffffffffffffffffffff1681526020016005820160149054906101000a900460ff1615151515815250508152602001906001019061063c565b50505050905090565b610976611332565b73ffffffffffffffffffffffffffffffffffffffff166109946109f6565b73ffffffffffffffffffffffffffffffffffffffff16146109ea576040517f08c379a00000000000000000000000000000000000000000000000000000000081526004016109e190611c2e565b60405180910390fd5b6109f4600061133a565b565b60008060009054906101000a900473ffffffffffffffffffffffffffffffffffffffff16905090565b610a27611332565b73ffffffffffffffffffffffffffffffffffffffff16610a456109f6565b73ffffffffffffffffffffffffffffffffffffffff1614610a9b576040517f08c379a0000000000000000000000000000000000000000000000000000000008152600401610a9290611c2e565b60405180910390fd5b600073ffffffffffffffffffffffffffffffffffffffff168173ffffffffffffffffffffffffffffffffffffffff161415610b0b576040517f08c379a0000000000000000000000000000000000000000000000000000000008152600401610b0290611bee565b60405180910390fd5b610b148161133a565b50565b6000610b21611332565b73ffffffffffffffffffffffffffffffffffffffff16610b3f6109f6565b73ffffffffffffffffffffffffffffffffffffffff1614610b95576040517f08c379a0000000000000000000000000000000000000000000000000000000008152600401610b8c90611c2e565b60405180910390fd5b82600460006101000a81548173ffffffffffffffffffffffffffffffffffffffff021916908373ffffffffffffffffffffffffffffffffffffffff1602179055508161ffff1660058190555030905092915050565b600080600260008573ffffffffffffffffffffffffffffffffffffffff1673ffffffffffffffffffffffffffffffffffffffff16815260200190815260200160002060009054906101000a900460ff16610c79576040517f08c379a0000000000000000000000000000000000000000000000000000000008152600401610c7090611c0e565b60405180910390fd5b60003411610cbc576040517f08c379a0000000000000000000000000000000000000000000000000000000008152600401610cb390611bce565b60405180910390fd5b60008311610cff576040517f08c379a0000000000000000000000000000000000000000000000000000000008152600401610cf690611c4e565b60405180910390fd5b6000600360008673ffffffffffffffffffffffffffffffffffffffff1673ffffffffffffffffffffffffffffffffffffffff168152602001908152602001600020549050600060018281548110610d7f577f4e487b7100000000000000000000000000000000000000000000000000000000600052603260045260246000fd5b906000526020600020906006020160405180610100016040529081600082018054610da990611eeb565b80601f0160208091040260200160405190810160405280929190818152602001828054610dd590611eeb565b8015610e225780601f10610df757610100808354040283529160200191610e22565b820191906000526020600020905b815481529060010190602001808311610e0557829003601f168201915b50505050508152602001600182018054610e3b90611eeb565b80601f0160208091040260200160405190810160405280929190818152602001828054610e6790611eeb565b8015610eb45780601f10610e8957610100808354040283529160200191610eb4565b820191906000526020600020905b815481529060010190602001808311610e9757829003601f168201915b50505050508152602001600282018054610ecd90611eeb565b80601f0160208091040260200160405190810160405280929190818152602001828054610ef990611eeb565b8015610f465780601f10610f1b57610100808354040283529160200191610f46565b820191906000526020600020905b815481529060010190602001808311610f2957829003601f168201915b505050505081526020016003820160009054906101000a900473ffffffffffffffffffffffffffffffffffffffff1673ffffffffffffffffffffffffffffffffffffffff1673ffffffffffffffffffffffffffffffffffffffff1681526020016004820160009054906101000a900473ffffffffffffffffffffffffffffffffffffffff1673ffffffffffffffffffffffffffffffffffffffff1673ffffffffffffffffffffffffffffffffffffffff1681526020016004820160149054906101000a900462ffffff1662ffffff1662ffffff1681526020016005820160009054906101000a900473ffffffffffffffffffffffffffffffffffffffff1673ffffffffffffffffffffffffffffffffffffffff1673ffffffffffffffffffffffffffffffffffffffff1681526020016005820160149054906101000a900460ff16151515158152505090506000604051806101000160405280836080015173ffffffffffffffffffffffffffffffffffffffff168152602001836060015173ffffffffffffffffffffffffffffffffffffffff1681526020018360a0015162ffffff1681526020013373ffffffffffffffffffffffffffffffffffffffff16815260200187426111169190611dba565b815260200134815260200160008152602001600073ffffffffffffffffffffffffffffffffffffffff168152509050600460009054906101000a900473ffffffffffffffffffffffffffffffffffffffff1673ffffffffffffffffffffffffffffffffffffffff1663414bf38934836040518363ffffffff1660e01b81526004016111a19190611cae565b6020604051808303818588803b1580156111ba57600080fd5b505af11580156111ce573d6000803e3d6000fd5b50505050506040513d601f19601f820116820180604052508101906111f391906117b0565b945060009350600460009054906101000a900473ffffffffffffffffffffffffffffffffffffffff1673ffffffffffffffffffffffffffffffffffffffff166312210e8a6040518163ffffffff1660e01b8152600401600060405180830381600087803b15801561126357600080fd5b505af1158015611277573d6000803e3d6000fd5b5050505060003373ffffffffffffffffffffffffffffffffffffffff16476040516112a190611b7c565b60006040518083038185875af1925050503d80600081146112de576040519150601f19603f3d011682016040523d82523d6000602084013e6112e3565b606091505b5050905080611327576040517f08c379a000000000000000000000000000000000000000000000000000000000815260040161131e90611c8e565b60405180910390fd5b505050509250929050565b600033905090565b60008060009054906101000a900473ffffffffffffffffffffffffffffffffffffffff169050816000806101000a81548173ffffffffffffffffffffffffffffffffffffffff021916908373ffffffffffffffffffffffffffffffffffffffff1602179055508173ffffffffffffffffffffffffffffffffffffffff168173ffffffffffffffffffffffffffffffffffffffff167f8be0079c531659141344cd1fd0a4f28419497f9722a3daafe3b4186f6b6457e060405160405180910390a35050565b604051806101000160405280606081526020016060815260200160608152602001600073ffffffffffffffffffffffffffffffffffffffff168152602001600073ffffffffffffffffffffffffffffffffffffffff168152602001600062ffffff168152602001600073ffffffffffffffffffffffffffffffffffffffff1681526020016000151581525090565b82805461149890611eeb565b90600052602060002090601f0160209004810192826114ba5760008555611501565b82601f106114d357805160ff1916838001178555611501565b82800160010185558215611501579182015b828111156115005782518255916020019190600101906114e5565b5b50905061150e9190611512565b5090565b5b8082111561152b576000816000905550600101611513565b5090565b600061154261153d84611d18565b611cf3565b90508281526020810184848401111561155a57600080fd5b611565848285611ea9565b509392505050565b60008135905061157c81612134565b92915050565b6000813590506115918161214b565b92915050565b600082601f8301126115a857600080fd5b81356115b884826020860161152f565b91505092915050565b6000813590506115d081612162565b92915050565b6000813590506115e581612179565b92915050565b6000813590506115fa81612190565b92915050565b60008151905061160f81612190565b92915050565b60006020828403121561162757600080fd5b60006116358482850161156d565b91505092915050565b6000806040838503121561165157600080fd5b600061165f8582860161156d565b9250506020611670858286016115c1565b9150509250929050565b6000806040838503121561168d57600080fd5b600061169b8582860161156d565b92505060206116ac858286016115eb565b9150509250929050565b600080600080600080600080610100898b0312156116d357600080fd5b600089013567ffffffffffffffff8111156116ed57600080fd5b6116f98b828c01611597565b985050602089013567ffffffffffffffff81111561171657600080fd5b6117228b828c01611597565b975050604089013567ffffffffffffffff81111561173f57600080fd5b61174b8b828c01611597565b965050606061175c8b828c0161156d565b955050608061176d8b828c0161156d565b94505060a061177e8b828c016115d6565b93505060c061178f8b828c0161156d565b92505060e06117a08b828c01611582565b9150509295985092959890939650565b6000602082840312156117c257600080fd5b60006117d084828501611600565b91505092915050565b60006117e583836119e0565b905092915050565b6117f681611e44565b82525050565b61180581611e44565b82525050565b600061181682611d59565b6118208185611d7c565b93508360208202850161183285611d49565b8060005b8581101561186e578484038952815161184f85826117d9565b945061185a83611d6f565b925060208a01995050600181019050611836565b50829750879550505050505092915050565b61188981611e56565b82525050565b600061189a82611d64565b6118a48185611d98565b93506118b4818560208601611eb8565b6118bd81611fdb565b840191505092915050565b60006118d5601e83611da9565b91506118e082611fec565b602082019050919050565b60006118f8602683611da9565b915061190382612015565b604082019050919050565b600061191b601583611da9565b915061192682612064565b602082019050919050565b600061193e602083611da9565b91506119498261208d565b602082019050919050565b6000611961600083611d8d565b915061196c826120b6565b600082019050919050565b6000611984601683611da9565b915061198f826120b9565b602082019050919050565b60006119a7601483611da9565b91506119b2826120e2565b602082019050919050565b60006119ca600d83611da9565b91506119d58261210b565b602082019050919050565b60006101008301600083015184820360008601526119fe828261188f565b91505060208301518482036020860152611a18828261188f565b91505060408301518482036040860152611a32828261188f565b9150506060830151611a4760608601826117ed565b506080830151611a5a60808601826117ed565b5060a0830151611a6d60a0860182611b4f565b5060c0830151611a8060c08601826117ed565b5060e0830151611a9360e0860182611880565b508091505092915050565b61010082016000820151611ab560008501826117ed565b506020820151611ac860208501826117ed565b506040820151611adb6040850182611b4f565b506060820151611aee60608501826117ed565b506080820151611b016080850182611b5e565b5060a0820151611b1460a0850182611b5e565b5060c0820151611b2760c0850182611b5e565b5060e0820151611b3a60e0850182611b40565b50505050565b611b4981611e70565b82525050565b611b5881611e90565b82525050565b611b6781611e9f565b82525050565b611b7681611e9f565b82525050565b6000611b8782611954565b9150819050919050565b6000602082019050611ba660008301846117fc565b92915050565b60006020820190508181036000830152611bc6818461180b565b905092915050565b60006020820190508181036000830152611be7816118c8565b9050919050565b60006020820190508181036000830152611c07816118eb565b9050919050565b60006020820190508181036000830152611c278161190e565b9050919050565b60006020820190508181036000830152611c4781611931565b9050919050565b60006020820190508181036000830152611c6781611977565b9050919050565b60006020820190508181036000830152611c878161199a565b9050919050565b60006020820190508181036000830152611ca7816119bd565b9050919050565b600061010082019050611cc46000830184611a9e565b92915050565b6000604082019050611cdf6000830185611b6d565b611cec6020830184611b6d565b9392505050565b6000611cfd611d0e565b9050611d098282611f1d565b919050565b6000604051905090565b600067ffffffffffffffff821115611d3357611d32611fac565b5b611d3c82611fdb565b9050602081019050919050565b6000819050602082019050919050565b600081519050919050565b600081519050919050565b6000602082019050919050565b600082825260208201905092915050565b600081905092915050565b600082825260208201905092915050565b600082825260208201905092915050565b6000611dc582611e9f565b9150611dd083611e9f565b9250827fffffffffffffffffffffffffffffffffffffffffffffffffffffffffffffffff03821115611e0557611e04611f4e565b5b828201905092915050565b6000611e1b82611e9f565b9150611e2683611e9f565b925082821015611e3957611e38611f4e565b5b828203905092915050565b6000611e4f82611e70565b9050919050565b60008115159050919050565b600061ffff82169050919050565b600073ffffffffffffffffffffffffffffffffffffffff82169050919050565b600062ffffff82169050919050565b6000819050919050565b82818337600083830152505050565b60005b83811015611ed6578082015181840152602081019050611ebb565b83811115611ee5576000848401525b50505050565b60006002820490506001821680611f0357607f821691505b60208210811415611f1757611f16611f7d565b5b50919050565b611f2682611fdb565b810181811067ffffffffffffffff82111715611f4557611f44611fac565b5b80604052505050565b7f4e487b7100000000000000000000000000000000000000000000000000000000600052601160045260246000fd5b7f4e487b7100000000000000000000000000000000000000000000000000000000600052602260045260246000fd5b7f4e487b7100000000000000000000000000000000000000000000000000000000600052604160045260246000fd5b6000601f19601f8301169050919050565b7f5061737320696e206e6f6e2d3020696e70757420616d6f756e74204554480000600082015250565b7f4f776e61626c653a206e6577206f776e657220697320746865207a65726f206160008201527f6464726573730000000000000000000000000000000000000000000000000000602082015250565b7f496e64657820646f6573206e6f74206578697374730000000000000000000000600082015250565b7f4f776e61626c653a2063616c6c6572206973206e6f7420746865206f776e6572600082015250565b50565b7f5061737320696e206e6f6e2d3020646561646c696e6500000000000000000000600082015250565b7f496e64657820616c726561647920657869737473000000000000000000000000600082015250565b7f726566756e64206661696c656400000000000000000000000000000000000000600082015250565b61213d81611e44565b811461214857600080fd5b50565b61215481611e56565b811461215f57600080fd5b50565b61216b81611e62565b811461217657600080fd5b50565b61218281611e90565b811461218d57600080fd5b50565b61219981611e9f565b81146121a457600080fd5b5056fea264697066735822122089ae56669c6030c5fc7e84d3a221a13baa82a94072166de292ffb2ed23a2315a64736f6c63430008040033",
    "linkReferences": {},
    "deployedLinkReferences": {}
}