{
    "_format": "hh-sol-artifact-1",
    "contractName": "BasketFactory",
    "sourceName": "contracts/index-manager/BasketFactory.sol",
    "abi": [
        {
            "anonymous": false,
            "inputs": [
                {
                    "indexed": true,
                    "internalType": "address",
                    "name": "previousOwner",
                    "type": "address"
                },
                {
                    "indexed": true,
                    "internalType": "address",
                    "name": "newOwner",
                    "type": "address"
                }
            ],
            "name": "OwnershipTransferred",
            "type": "event"
        },
        {
            "inputs": [
                {
                    "internalType": "uint256",
                    "name": "",
                    "type": "uint256"
                }
            ],
            "name": "baskets",
            "outputs": [
                {
                    "internalType": "address",
                    "name": "",
                    "type": "address"
                }
            ],
            "stateMutability": "view",
            "type": "function"
        },
        {
            "inputs": [
                {
                    "internalType": "address[]",
                    "name": "_components",
                    "type": "address[]"
                },
                {
                    "internalType": "uint256[]",
                    "name": "_units",
                    "type": "uint256[]"
                },
                {
                    "internalType": "address",
                    "name": "buyToken",
                    "type": "address"
                },
                {
                    "internalType": "uint256",
                    "name": "rate",
                    "type": "uint256"
                },
                {
                    "internalType": "address",
                    "name": "_manager",
                    "type": "address"
                },
                {
                    "internalType": "string",
                    "name": "_name",
                    "type": "string"
                },
                {
                    "internalType": "string",
                    "name": "_symbol",
                    "type": "string"
                }
            ],
            "name": "create",
            "outputs": [
                {
                    "internalType": "address",
                    "name": "",
                    "type": "address"
                }
            ],
            "stateMutability": "nonpayable",
            "type": "function"
        },
        {
            "inputs": [],
            "name": "owner",
            "outputs": [
                {
                    "internalType": "address",
                    "name": "",
                    "type": "address"
                }
            ],
            "stateMutability": "view",
            "type": "function"
        },
        {
            "inputs": [],
            "name": "renounceOwnership",
            "outputs": [],
            "stateMutability": "nonpayable",
            "type": "function"
        },
        {
            "inputs": [
                {
                    "internalType": "address",
                    "name": "newOwner",
                    "type": "address"
                }
            ],
            "name": "transferOwnership",
            "outputs": [],
            "stateMutability": "nonpayable",
            "type": "function"
        }
    ],
    "bytecode": "0x608060405234801561001057600080fd5b5061002d61002261003260201b60201c565b61003a60201b60201c565b6100fe565b600033905090565b60008060009054906101000a900473ffffffffffffffffffffffffffffffffffffffff169050816000806101000a81548173ffffffffffffffffffffffffffffffffffffffff021916908373ffffffffffffffffffffffffffffffffffffffff1602179055508173ffffffffffffffffffffffffffffffffffffffff168173ffffffffffffffffffffffffffffffffffffffff167f8be0079c531659141344cd1fd0a4f28419497f9722a3daafe3b4186f6b6457e060405160405180910390a35050565b6155ee8061010d6000396000f3fe60806040523480156200001157600080fd5b50600436106200005e5760003560e01c80635b7a102f1462000063578063715018a614620000995780638da5cb5b14620000a5578063a60ed37414620000c7578063f2fde38b14620000fd575b600080fd5b6200008160048036038101906200007b919062000a8f565b6200011d565b60405162000090919062000e80565b60405180910390f35b620000a3620005a7565b005b620000af62000638565b604051620000be919062000e80565b60405180910390f35b620000e56004803603810190620000df919062000ba0565b62000661565b604051620000f4919062000e80565b60405180910390f35b6200011b600480360381019062000115919062000a63565b620006a1565b005b600062000129620007a5565b73ffffffffffffffffffffffffffffffffffffffff166200014962000638565b73ffffffffffffffffffffffffffffffffffffffff1614620001a2576040517f08c379a0000000000000000000000000000000000000000000000000000000008152600401620001999062000f7c565b60405180910390fd5b6000885111620001e9576040517f08c379a0000000000000000000000000000000000000000000000000000000008152600401620001e09062000f38565b60405180910390fd5b865188511462000230576040517f08c379a0000000000000000000000000000000000000000000000000000000008152600401620002279062001004565b60405180910390fd5b600073ffffffffffffffffffffffffffffffffffffffff168473ffffffffffffffffffffffffffffffffffffffff161415620002a3576040517f08c379a00000000000000000000000000000000000000000000000000000000081526004016200029a9062000fc0565b60405180910390fd5b60005b88518110156200040157600073ffffffffffffffffffffffffffffffffffffffff1689828151811062000302577f4e487b7100000000000000000000000000000000000000000000000000000000600052603260045260246000fd5b602002602001015173ffffffffffffffffffffffffffffffffffffffff16141562000364576040517f08c379a00000000000000000000000000000000000000000000000000000000081526004016200035b9062000fe2565b60405180910390fd5b6000888281518110620003a0577f4e487b7100000000000000000000000000000000000000000000000000000000600052603260045260246000fd5b602002602001015111620003eb576040517f08c379a0000000000000000000000000000000000000000000000000000000008152600401620003e29062000f9e565b60405180910390fd5b8080620003f8906200122a565b915050620002a6565b5060008888868686604051620004179062000871565b6200042795949392919062000e9d565b604051809103906000f08015801562000444573d6000803e3d6000fd5b5090506000819050600260008273ffffffffffffffffffffffffffffffffffffffff1673ffffffffffffffffffffffffffffffffffffffff16815260200190815260200160002060009054906101000a900460ff1615620004dc576040517f08c379a0000000000000000000000000000000000000000000000000000000008152600401620004d39062000f5a565b60405180910390fd5b6001600260008373ffffffffffffffffffffffffffffffffffffffff1673ffffffffffffffffffffffffffffffffffffffff16815260200190815260200160002060006101000a81548160ff0219169083151502179055506001819080600181540180825580915050600190039060005260206000200160009091909190916101000a81548173ffffffffffffffffffffffffffffffffffffffff021916908373ffffffffffffffffffffffffffffffffffffffff1602179055508092505050979650505050505050565b620005b1620007a5565b73ffffffffffffffffffffffffffffffffffffffff16620005d162000638565b73ffffffffffffffffffffffffffffffffffffffff16146200062a576040517f08c379a0000000000000000000000000000000000000000000000000000000008152600401620006219062000f7c565b60405180910390fd5b620006366000620007ad565b565b60008060009054906101000a900473ffffffffffffffffffffffffffffffffffffffff16905090565b600181815481106200067257600080fd5b906000526020600020016000915054906101000a900473ffffffffffffffffffffffffffffffffffffffff1681565b620006ab620007a5565b73ffffffffffffffffffffffffffffffffffffffff16620006cb62000638565b73ffffffffffffffffffffffffffffffffffffffff161462000724576040517f08c379a00000000000000000000000000000000000000000000000000000000081526004016200071b9062000f7c565b60405180910390fd5b600073ffffffffffffffffffffffffffffffffffffffff168173ffffffffffffffffffffffffffffffffffffffff16141562000797576040517f08c379a00000000000000000000000000000000000000000000000000000000081526004016200078e9062000f16565b60405180910390fd5b620007a281620007ad565b50565b600033905090565b60008060009054906101000a900473ffffffffffffffffffffffffffffffffffffffff169050816000806101000a81548173ffffffffffffffffffffffffffffffffffffffff021916908373ffffffffffffffffffffffffffffffffffffffff1602179055508173ffffffffffffffffffffffffffffffffffffffff168173ffffffffffffffffffffffffffffffffffffffff167f8be0079c531659141344cd1fd0a4f28419497f9722a3daafe3b4186f6b6457e060405160405180910390a35050565b6140e380620014d683390190565b60006200089662000890846200104f565b62001026565b90508083825260208201905082856020860282011115620008b657600080fd5b60005b85811015620008ea5781620008cf8882620009ae565b845260208401935060208301925050600181019050620008b9565b5050509392505050565b60006200090b62000905846200107e565b62001026565b905080838252602082019050828560208602820111156200092b57600080fd5b60005b858110156200095f578162000944888262000a4c565b8452602084019350602083019250506001810190506200092e565b5050509392505050565b6000620009806200097a84620010ad565b62001026565b9050828152602081018484840111156200099957600080fd5b620009a6848285620011af565b509392505050565b600081359050620009bf81620014a1565b92915050565b600082601f830112620009d757600080fd5b8135620009e98482602086016200087f565b91505092915050565b600082601f83011262000a0457600080fd5b813562000a16848260208601620008f4565b91505092915050565b600082601f83011262000a3157600080fd5b813562000a4384826020860162000969565b91505092915050565b60008135905062000a5d81620014bb565b92915050565b60006020828403121562000a7657600080fd5b600062000a8684828501620009ae565b91505092915050565b600080600080600080600060e0888a03121562000aab57600080fd5b600088013567ffffffffffffffff81111562000ac657600080fd5b62000ad48a828b01620009c5565b975050602088013567ffffffffffffffff81111562000af257600080fd5b62000b008a828b01620009f2565b965050604062000b138a828b01620009ae565b955050606062000b268a828b0162000a4c565b945050608062000b398a828b01620009ae565b93505060a088013567ffffffffffffffff81111562000b5757600080fd5b62000b658a828b0162000a1f565b92505060c088013567ffffffffffffffff81111562000b8357600080fd5b62000b918a828b0162000a1f565b91505092959891949750929550565b60006020828403121562000bb357600080fd5b600062000bc38482850162000a4c565b91505092915050565b600062000bda838362000c00565b60208301905092915050565b600062000bf4838362000e6f565b60208301905092915050565b62000c0b8162001171565b82525050565b62000c1c8162001171565b82525050565b600062000c2f8262001103565b62000c3b81856200113e565b935062000c4883620010e3565b8060005b8381101562000c7f57815162000c63888262000bcc565b975062000c708362001124565b92505060018101905062000c4c565b5085935050505092915050565b600062000c99826200110e565b62000ca581856200114f565b935062000cb283620010f3565b8060005b8381101562000ce957815162000ccd888262000be6565b975062000cda8362001131565b92505060018101905062000cb6565b5085935050505092915050565b600062000d038262001119565b62000d0f818562001160565b935062000d21818560208601620011be565b62000d2c81620012d6565b840191505092915050565b600062000d4660268362001160565b915062000d5382620012e7565b604082019050919050565b600062000d6d601e8362001160565b915062000d7a8262001336565b602082019050919050565b600062000d9460158362001160565b915062000da1826200135f565b602082019050919050565b600062000dbb60208362001160565b915062000dc88262001388565b602082019050919050565b600062000de2601c8362001160565b915062000def82620013b1565b602082019050919050565b600062000e0960198362001160565b915062000e1682620013da565b602082019050919050565b600062000e3060228362001160565b915062000e3d8262001403565b604082019050919050565b600062000e57602b8362001160565b915062000e648262001452565b604082019050919050565b62000e7a81620011a5565b82525050565b600060208201905062000e97600083018462000c11565b92915050565b600060a082019050818103600083015262000eb9818862000c22565b9050818103602083015262000ecf818762000c8c565b905062000ee0604083018662000c11565b818103606083015262000ef4818562000cf6565b9050818103608083015262000f0a818462000cf6565b90509695505050505050565b6000602082019050818103600083015262000f318162000d37565b9050919050565b6000602082019050818103600083015262000f538162000d5e565b9050919050565b6000602082019050818103600083015262000f758162000d85565b9050919050565b6000602082019050818103600083015262000f978162000dac565b9050919050565b6000602082019050818103600083015262000fb98162000dd3565b9050919050565b6000602082019050818103600083015262000fdb8162000dfa565b9050919050565b6000602082019050818103600083015262000ffd8162000e21565b9050919050565b600060208201905081810360008301526200101f8162000e48565b9050919050565b60006200103262001045565b9050620010408282620011f4565b919050565b6000604051905090565b600067ffffffffffffffff8211156200106d576200106c620012a7565b5b602082029050602081019050919050565b600067ffffffffffffffff8211156200109c576200109b620012a7565b5b602082029050602081019050919050565b600067ffffffffffffffff821115620010cb57620010ca620012a7565b5b620010d682620012d6565b9050602081019050919050565b6000819050602082019050919050565b6000819050602082019050919050565b600081519050919050565b600081519050919050565b600081519050919050565b6000602082019050919050565b6000602082019050919050565b600082825260208201905092915050565b600082825260208201905092915050565b600082825260208201905092915050565b60006200117e8262001185565b9050919050565b600073ffffffffffffffffffffffffffffffffffffffff82169050919050565b6000819050919050565b82818337600083830152505050565b60005b83811015620011de578082015181840152602081019050620011c1565b83811115620011ee576000848401525b50505050565b620011ff82620012d6565b810181811067ffffffffffffffff82111715620012215762001220620012a7565b5b80604052505050565b60006200123782620011a5565b91507fffffffffffffffffffffffffffffffffffffffffffffffffffffffffffffffff8214156200126d576200126c62001278565b5b600182019050919050565b7f4e487b7100000000000000000000000000000000000000000000000000000000600052601160045260246000fd5b7f4e487b7100000000000000000000000000000000000000000000000000000000600052604160045260246000fd5b6000601f19601f8301169050919050565b7f4f776e61626c653a206e6577206f776e657220697320746865207a65726f206160008201527f6464726573730000000000000000000000000000000000000000000000000000602082015250565b7f4d7573742068617665206174206c65617374203120636f6d706f6e656e740000600082015250565b7f4261736b657420616c7265616479206578697374730000000000000000000000600082015250565b7f4f776e61626c653a2063616c6c6572206973206e6f7420746865206f776e6572600082015250565b7f556e697473206d7573742062652067726561746572207468616e203000000000600082015250565b7f4d616e61676572206d757374206e6f7420626520656d70747900000000000000600082015250565b7f436f6d706f6e656e74206d757374206e6f74206265206e756c6c20616464726560008201527f7373000000000000000000000000000000000000000000000000000000000000602082015250565b7f436f6d706f6e656e7420616e6420756e6974206c656e67746873206d7573742060008201527f6265207468652073616d65000000000000000000000000000000000000000000602082015250565b620014ac8162001171565b8114620014b857600080fd5b50565b620014c681620011a5565b8114620014d257600080fd5b5056fe60806040523480156200001157600080fd5b50604051620040e3380380620040e383398181016040528101906200003791906200083a565b8181818181600590805190602001906200005392919062000517565b5080600690805190602001906200006c92919062000517565b5050506000600760006101000a81548160ff021916908315150217905550620000ae6000801b620000a26200028160201b60201c565b6200028960201b60201c565b620000ef7f9f2df0fed2c77648de5860a4cc508cd0818c85b8b8a1ab4ceeef8d981c8956a6620000e36200028160201b60201c565b6200028960201b60201c565b620001307f65d7a28e3265b37a6474929f336521b332c1681b933f6cb9f3376673440d862a620001246200028160201b60201c565b6200028960201b60201c565b505082600760016101000a81548173ffffffffffffffffffffffffffffffffffffffff021916908373ffffffffffffffffffffffffffffffffffffffff16021790555084600890805190602001906200018b929190620005a8565b5060005b85518110156200027557848181518110620001d3577f4e487b7100000000000000000000000000000000000000000000000000000000600052603260045260246000fd5b60200260200101516009600088848151811062000219577f4e487b7100000000000000000000000000000000000000000000000000000000600052603260045260246000fd5b602002602001015173ffffffffffffffffffffffffffffffffffffffff1673ffffffffffffffffffffffffffffffffffffffff1681526020019081526020016000208190555080806200026c9062000abd565b9150506200018f565b50505050505062000bdd565b600033905090565b6200029b82826200029f60201b60201c565b5050565b620002b68282620002e760201b620010351760201c565b620002e28160016000858152602001908152602001600020620003d860201b620011151790919060201c565b505050565b620002f982826200041060201b60201c565b620003d457600160008084815260200190815260200160002060000160008373ffffffffffffffffffffffffffffffffffffffff1673ffffffffffffffffffffffffffffffffffffffff16815260200190815260200160002060006101000a81548160ff021916908315150217905550620003796200028160201b60201c565b73ffffffffffffffffffffffffffffffffffffffff168173ffffffffffffffffffffffffffffffffffffffff16837f2f8788117e7eff1d82e926ec794901d17c78024a50270940304540a733656f0d60405160405180910390a45b5050565b600062000408836000018373ffffffffffffffffffffffffffffffffffffffff1660001b6200047a60201b60201c565b905092915050565b600080600084815260200190815260200160002060000160008373ffffffffffffffffffffffffffffffffffffffff1673ffffffffffffffffffffffffffffffffffffffff16815260200190815260200160002060009054906101000a900460ff16905092915050565b60006200048e8383620004f460201b60201c565b620004e9578260000182908060018154018082558091505060019003906000526020600020016000909190919091505582600001805490508360010160008481526020019081526020016000208190555060019050620004ee565b600090505b92915050565b600080836001016000848152602001908152602001600020541415905092915050565b828054620005259062000a51565b90600052602060002090601f01602090048101928262000549576000855562000595565b82601f106200056457805160ff191683800117855562000595565b8280016001018555821562000595579182015b828111156200059457825182559160200191906001019062000577565b5b509050620005a4919062000637565b5090565b82805482825590600052602060002090810192821562000624579160200282015b82811115620006235782518260006101000a81548173ffffffffffffffffffffffffffffffffffffffff021916908373ffffffffffffffffffffffffffffffffffffffff16021790555091602001919060010190620005c9565b5b50905062000633919062000637565b5090565b5b808211156200065257600081600090555060010162000638565b5090565b60006200066d620006678462000949565b62000920565b905080838252602082019050828560208602820111156200068d57600080fd5b60005b85811015620006c15781620006a6888262000785565b84526020840193506020830192505060018101905062000690565b5050509392505050565b6000620006e2620006dc8462000978565b62000920565b905080838252602082019050828560208602820111156200070257600080fd5b60005b858110156200073657816200071b888262000823565b84526020840193506020830192505060018101905062000705565b5050509392505050565b6000620007576200075184620009a7565b62000920565b9050828152602081018484840111156200077057600080fd5b6200077d84828562000a1b565b509392505050565b600081519050620007968162000ba9565b92915050565b600082601f830112620007ae57600080fd5b8151620007c084826020860162000656565b91505092915050565b600082601f830112620007db57600080fd5b8151620007ed848260208601620006cb565b91505092915050565b600082601f8301126200080857600080fd5b81516200081a84826020860162000740565b91505092915050565b600081519050620008348162000bc3565b92915050565b600080600080600060a086880312156200085357600080fd5b600086015167ffffffffffffffff8111156200086e57600080fd5b6200087c888289016200079c565b955050602086015167ffffffffffffffff8111156200089a57600080fd5b620008a888828901620007c9565b9450506040620008bb8882890162000785565b935050606086015167ffffffffffffffff811115620008d957600080fd5b620008e788828901620007f6565b925050608086015167ffffffffffffffff8111156200090557600080fd5b6200091388828901620007f6565b9150509295509295909350565b60006200092c6200093f565b90506200093a828262000a87565b919050565b6000604051905090565b600067ffffffffffffffff82111562000967576200096662000b69565b5b602082029050602081019050919050565b600067ffffffffffffffff82111562000996576200099562000b69565b5b602082029050602081019050919050565b600067ffffffffffffffff821115620009c557620009c462000b69565b5b620009d08262000b98565b9050602081019050919050565b6000620009ea82620009f1565b9050919050565b600073ffffffffffffffffffffffffffffffffffffffff82169050919050565b6000819050919050565b60005b8381101562000a3b57808201518184015260208101905062000a1e565b8381111562000a4b576000848401525b50505050565b6000600282049050600182168062000a6a57607f821691505b6020821081141562000a815762000a8062000b3a565b5b50919050565b62000a928262000b98565b810181811067ffffffffffffffff8211171562000ab45762000ab362000b69565b5b80604052505050565b600062000aca8262000a11565b91507fffffffffffffffffffffffffffffffffffffffffffffffffffffffffffffffff82141562000b005762000aff62000b0b565b5b600182019050919050565b7f4e487b7100000000000000000000000000000000000000000000000000000000600052601160045260246000fd5b7f4e487b7100000000000000000000000000000000000000000000000000000000600052602260045260246000fd5b7f4e487b7100000000000000000000000000000000000000000000000000000000600052604160045260246000fd5b6000601f19601f8301169050919050565b62000bb481620009dd565b811462000bc057600080fd5b50565b62000bce8162000a11565b811462000bda57600080fd5b50565b6134f68062000bed6000396000f3fe608060405234801561001057600080fd5b50600436106101e55760003560e01c806370a082311161010f578063a457c2d7116100a2578063d539139311610071578063d5391393146105cc578063d547741f146105ea578063dd62ed3e14610606578063e63ab1e914610636576101e5565b8063a457c2d71461050c578063a9059cbb1461053c578063c5d574fe1461056c578063ca15c8731461059c576101e5565b80639010d07c116100de5780639010d07c1461047057806391d14854146104a057806395d89b41146104d0578063a217fddf146104ee576101e5565b806370a08231146103ea57806379cc67901461041a5780637af2850d146104365780638456cb5914610466576101e5565b8063313ce5671161018757806340c10f191161015657806340c10f191461037657806342966c6814610392578063481c6a75146103ae5780635c975abb146103cc576101e5565b8063313ce5671461030257806336568abe14610320578063395093511461033c5780633f4ba83a1461036c576101e5565b806318160ddd116101c357806318160ddd1461026857806323b872dd14610286578063248a9ca3146102b65780632f2ff15d146102e6576101e5565b806301ffc9a7146101ea57806306fdde031461021a578063095ea7b314610238575b600080fd5b61020460048036038101906101ff9190612510565b610654565b604051610211919061294b565b60405180910390f35b6102226106ce565b60405161022f9190612981565b60405180910390f35b610252600480360381019061024d9190612433565b610760565b60405161025f919061294b565b60405180910390f35b61027061077e565b60405161027d9190612c03565b60405180910390f35b6102a0600480360381019061029b91906123e4565b610788565b6040516102ad919061294b565b60405180910390f35b6102d060048036038101906102cb919061246f565b610880565b6040516102dd9190612966565b60405180910390f35b61030060048036038101906102fb9190612498565b61089f565b005b61030a6108c8565b6040516103179190612c1e565b60405180910390f35b61033a60048036038101906103359190612498565b6108d1565b005b61035660048036038101906103519190612433565b610954565b604051610363919061294b565b60405180910390f35b610374610a00565b005b610390600480360381019061038b9190612433565b610a7a565b005b6103ac60048036038101906103a79190612539565b610af8565b005b6103b6610b0c565b6040516103c39190612930565b60405180910390f35b6103d4610b32565b6040516103e1919061294b565b60405180910390f35b61040460048036038101906103ff919061237f565b610b49565b6040516104119190612c03565b60405180910390f35b610434600480360381019061042f9190612433565b610b92565b005b610450600480360381019061044b919061237f565b610c0d565b60405161045d9190612c03565b60405180910390f35b61046e610c25565b005b61048a600480360381019061048591906124d4565b610c9f565b6040516104979190612930565b60405180910390f35b6104ba60048036038101906104b59190612498565b610cce565b6040516104c7919061294b565b60405180910390f35b6104d8610d38565b6040516104e59190612981565b60405180910390f35b6104f6610dca565b6040516105039190612966565b60405180910390f35b61052660048036038101906105219190612433565b610dd1565b604051610533919061294b565b60405180910390f35b61055660048036038101906105519190612433565b610ebc565b604051610563919061294b565b60405180910390f35b61058660048036038101906105819190612539565b610eda565b6040516105939190612930565b60405180910390f35b6105b660048036038101906105b1919061246f565b610f19565b6040516105c39190612c03565b60405180910390f35b6105d4610f3d565b6040516105e19190612966565b60405180910390f35b61060460048036038101906105ff9190612498565b610f61565b005b610620600480360381019061061b91906123a8565b610f8a565b60405161062d9190612c03565b60405180910390f35b61063e611011565b60405161064b9190612966565b60405180910390f35b60007f5a05180f000000000000000000000000000000000000000000000000000000007bffffffffffffffffffffffffffffffffffffffffffffffffffffffff1916827bffffffffffffffffffffffffffffffffffffffffffffffffffffffff191614806106c757506106c682611145565b5b9050919050565b6060600580546106dd90612e2c565b80601f016020809104026020016040519081016040528092919081815260200182805461070990612e2c565b80156107565780601f1061072b57610100808354040283529160200191610756565b820191906000526020600020905b81548152906001019060200180831161073957829003601f168201915b5050505050905090565b600061077461076d6111bf565b84846111c7565b6001905092915050565b6000600454905090565b6000610795848484611392565b6000600360008673ffffffffffffffffffffffffffffffffffffffff1673ffffffffffffffffffffffffffffffffffffffff16815260200190815260200160002060006107e06111bf565b73ffffffffffffffffffffffffffffffffffffffff1673ffffffffffffffffffffffffffffffffffffffff16815260200190815260200160002054905082811015610860576040517f08c379a000000000000000000000000000000000000000000000000000000000815260040161085790612aa3565b60405180910390fd5b6108748561086c6111bf565b8584036111c7565b60019150509392505050565b6000806000838152602001908152602001600020600101549050919050565b6108a882610880565b6108b9816108b46111bf565b611616565b6108c383836116b3565b505050565b60006012905090565b6108d96111bf565b73ffffffffffffffffffffffffffffffffffffffff168173ffffffffffffffffffffffffffffffffffffffff1614610946576040517f08c379a000000000000000000000000000000000000000000000000000000000815260040161093d90612ba3565b60405180910390fd5b61095082826116e7565b5050565b60006109f66109616111bf565b84846003600061096f6111bf565b73ffffffffffffffffffffffffffffffffffffffff1673ffffffffffffffffffffffffffffffffffffffff16815260200190815260200160002060008873ffffffffffffffffffffffffffffffffffffffff1673ffffffffffffffffffffffffffffffffffffffff168152602001908152602001600020546109f19190612c60565b6111c7565b6001905092915050565b610a317f65d7a28e3265b37a6474929f336521b332c1681b933f6cb9f3376673440d862a610a2c6111bf565b610cce565b610a70576040517f08c379a0000000000000000000000000000000000000000000000000000000008152600401610a6790612a23565b60405180910390fd5b610a7861171b565b565b610aab7f9f2df0fed2c77648de5860a4cc508cd0818c85b8b8a1ab4ceeef8d981c8956a6610aa66111bf565b610cce565b610aea576040517f08c379a0000000000000000000000000000000000000000000000000000000008152600401610ae190612ac3565b60405180910390fd5b610af482826117bd565b5050565b610b09610b036111bf565b8261191e565b50565b600760019054906101000a900473ffffffffffffffffffffffffffffffffffffffff1681565b6000600760009054906101000a900460ff16905090565b6000600260008373ffffffffffffffffffffffffffffffffffffffff1673ffffffffffffffffffffffffffffffffffffffff168152602001908152602001600020549050919050565b6000610ba583610ba06111bf565b610f8a565b905081811015610bea576040517f08c379a0000000000000000000000000000000000000000000000000000000008152600401610be190612ae3565b60405180910390fd5b610bfe83610bf66111bf565b8484036111c7565b610c08838361191e565b505050565b60096020528060005260406000206000915090505481565b610c567f65d7a28e3265b37a6474929f336521b332c1681b933f6cb9f3376673440d862a610c516111bf565b610cce565b610c95576040517f08c379a0000000000000000000000000000000000000000000000000000000008152600401610c8c90612b63565b60405180910390fd5b610c9d611af7565b565b6000610cc68260016000868152602001908152602001600020611b9a90919063ffffffff16565b905092915050565b600080600084815260200190815260200160002060000160008373ffffffffffffffffffffffffffffffffffffffff1673ffffffffffffffffffffffffffffffffffffffff16815260200190815260200160002060009054906101000a900460ff16905092915050565b606060068054610d4790612e2c565b80601f0160208091040260200160405190810160405280929190818152602001828054610d7390612e2c565b8015610dc05780601f10610d9557610100808354040283529160200191610dc0565b820191906000526020600020905b815481529060010190602001808311610da357829003601f168201915b5050505050905090565b6000801b81565b60008060036000610de06111bf565b73ffffffffffffffffffffffffffffffffffffffff1673ffffffffffffffffffffffffffffffffffffffff16815260200190815260200160002060008573ffffffffffffffffffffffffffffffffffffffff1673ffffffffffffffffffffffffffffffffffffffff16815260200190815260200160002054905082811015610e9d576040517f08c379a0000000000000000000000000000000000000000000000000000000008152600401610e9490612b83565b60405180910390fd5b610eb1610ea86111bf565b858584036111c7565b600191505092915050565b6000610ed0610ec96111bf565b8484611392565b6001905092915050565b60088181548110610eea57600080fd5b906000526020600020016000915054906101000a900473ffffffffffffffffffffffffffffffffffffffff1681565b6000610f3660016000848152602001908152602001600020611bb4565b9050919050565b7f9f2df0fed2c77648de5860a4cc508cd0818c85b8b8a1ab4ceeef8d981c8956a681565b610f6a82610880565b610f7b81610f766111bf565b611616565b610f8583836116e7565b505050565b6000600360008473ffffffffffffffffffffffffffffffffffffffff1673ffffffffffffffffffffffffffffffffffffffff16815260200190815260200160002060008373ffffffffffffffffffffffffffffffffffffffff1673ffffffffffffffffffffffffffffffffffffffff16815260200190815260200160002054905092915050565b7f65d7a28e3265b37a6474929f336521b332c1681b933f6cb9f3376673440d862a81565b61103f8282610cce565b61111157600160008084815260200190815260200160002060000160008373ffffffffffffffffffffffffffffffffffffffff1673ffffffffffffffffffffffffffffffffffffffff16815260200190815260200160002060006101000a81548160ff0219169083151502179055506110b66111bf565b73ffffffffffffffffffffffffffffffffffffffff168173ffffffffffffffffffffffffffffffffffffffff16837f2f8788117e7eff1d82e926ec794901d17c78024a50270940304540a733656f0d60405160405180910390a45b5050565b600061113d836000018373ffffffffffffffffffffffffffffffffffffffff1660001b611bc9565b905092915050565b60007f7965db0b000000000000000000000000000000000000000000000000000000007bffffffffffffffffffffffffffffffffffffffffffffffffffffffff1916827bffffffffffffffffffffffffffffffffffffffffffffffffffffffff191614806111b857506111b782611c39565b5b9050919050565b600033905090565b600073ffffffffffffffffffffffffffffffffffffffff168373ffffffffffffffffffffffffffffffffffffffff161415611237576040517f08c379a000000000000000000000000000000000000000000000000000000000815260040161122e90612b43565b60405180910390fd5b600073ffffffffffffffffffffffffffffffffffffffff168273ffffffffffffffffffffffffffffffffffffffff1614156112a7576040517f08c379a000000000000000000000000000000000000000000000000000000000815260040161129e90612a43565b60405180910390fd5b80600360008573ffffffffffffffffffffffffffffffffffffffff1673ffffffffffffffffffffffffffffffffffffffff16815260200190815260200160002060008473ffffffffffffffffffffffffffffffffffffffff1673ffffffffffffffffffffffffffffffffffffffff168152602001908152602001600020819055508173ffffffffffffffffffffffffffffffffffffffff168373ffffffffffffffffffffffffffffffffffffffff167f8c5be1e5ebec7d5bd14f71427d1e84f3dd0314c0f7b2291e5b200ac8c7c3b925836040516113859190612c03565b60405180910390a3505050565b600073ffffffffffffffffffffffffffffffffffffffff168373ffffffffffffffffffffffffffffffffffffffff161415611402576040517f08c379a00000000000000000000000000000000000000000000000000000000081526004016113f990612b23565b60405180910390fd5b600073ffffffffffffffffffffffffffffffffffffffff168273ffffffffffffffffffffffffffffffffffffffff161415611472576040517f08c379a0000000000000000000000000000000000000000000000000000000008152600401611469906129c3565b60405180910390fd5b61147d838383611ca3565b6000600260008573ffffffffffffffffffffffffffffffffffffffff1673ffffffffffffffffffffffffffffffffffffffff16815260200190815260200160002054905081811015611504576040517f08c379a00000000000000000000000000000000000000000000000000000000081526004016114fb90612a63565b60405180910390fd5b818103600260008673ffffffffffffffffffffffffffffffffffffffff1673ffffffffffffffffffffffffffffffffffffffff1681526020019081526020016000208190555081600260008573ffffffffffffffffffffffffffffffffffffffff1673ffffffffffffffffffffffffffffffffffffffff16815260200190815260200160002060008282546115999190612c60565b925050819055508273ffffffffffffffffffffffffffffffffffffffff168473ffffffffffffffffffffffffffffffffffffffff167fddf252ad1be2c89b69c2b068fc378daa952ba7f163c4a11628f55a4df523b3ef846040516115fd9190612c03565b60405180910390a3611610848484611cb3565b50505050565b6116208282610cce565b6116af576116458173ffffffffffffffffffffffffffffffffffffffff166014611cb8565b6116538360001c6020611cb8565b6040516020016116649291906128f6565b6040516020818303038152906040526040517f08c379a00000000000000000000000000000000000000000000000000000000081526004016116a69190612981565b60405180910390fd5b5050565b6116bd8282611035565b6116e2816001600085815260200190815260200160002061111590919063ffffffff16565b505050565b6116f18282611fb2565b611716816001600085815260200190815260200160002061209390919063ffffffff16565b505050565b611723610b32565b611762576040517f08c379a0000000000000000000000000000000000000000000000000000000008152600401611759906129e3565b60405180910390fd5b6000600760006101000a81548160ff0219169083151502179055507f5db9ee0a495bf2e6ff9c91a7834c1ba4fdd244a5e8aa4e537bd38aeae4b073aa6117a66111bf565b6040516117b39190612930565b60405180910390a1565b600073ffffffffffffffffffffffffffffffffffffffff168273ffffffffffffffffffffffffffffffffffffffff16141561182d576040517f08c379a000000000000000000000000000000000000000000000000000000000815260040161182490612bc3565b60405180910390fd5b61183960008383611ca3565b806004600082825461184b9190612c60565b9250508190555080600260008473ffffffffffffffffffffffffffffffffffffffff1673ffffffffffffffffffffffffffffffffffffffff16815260200190815260200160002060008282546118a19190612c60565b925050819055508173ffffffffffffffffffffffffffffffffffffffff16600073ffffffffffffffffffffffffffffffffffffffff167fddf252ad1be2c89b69c2b068fc378daa952ba7f163c4a11628f55a4df523b3ef836040516119069190612c03565b60405180910390a361191a60008383611cb3565b5050565b600073ffffffffffffffffffffffffffffffffffffffff168273ffffffffffffffffffffffffffffffffffffffff16141561198e576040517f08c379a000000000000000000000000000000000000000000000000000000000815260040161198590612b03565b60405180910390fd5b61199a82600083611ca3565b6000600260008473ffffffffffffffffffffffffffffffffffffffff1673ffffffffffffffffffffffffffffffffffffffff16815260200190815260200160002054905081811015611a21576040517f08c379a0000000000000000000000000000000000000000000000000000000008152600401611a1890612a03565b60405180910390fd5b818103600260008573ffffffffffffffffffffffffffffffffffffffff1673ffffffffffffffffffffffffffffffffffffffff168152602001908152602001600020819055508160046000828254611a799190612d10565b92505081905550600073ffffffffffffffffffffffffffffffffffffffff168373ffffffffffffffffffffffffffffffffffffffff167fddf252ad1be2c89b69c2b068fc378daa952ba7f163c4a11628f55a4df523b3ef84604051611ade9190612c03565b60405180910390a3611af283600084611cb3565b505050565b611aff610b32565b15611b3f576040517f08c379a0000000000000000000000000000000000000000000000000000000008152600401611b3690612a83565b60405180910390fd5b6001600760006101000a81548160ff0219169083151502179055507f62e78cea01bee320cd4e420270b5ea74000d11b0c9f74754ebdbfc544b05a258611b836111bf565b604051611b909190612930565b60405180910390a1565b6000611ba983600001836120c3565b60001c905092915050565b6000611bc282600001612114565b9050919050565b6000611bd58383612125565b611c2e578260000182908060018154018082558091505060019003906000526020600020016000909190919091505582600001805490508360010160008481526020019081526020016000208190555060019050611c33565b600090505b92915050565b60007f01ffc9a7000000000000000000000000000000000000000000000000000000007bffffffffffffffffffffffffffffffffffffffffffffffffffffffff1916827bffffffffffffffffffffffffffffffffffffffffffffffffffffffff1916149050919050565b611cae838383612148565b505050565b505050565b606060006002836002611ccb9190612cb6565b611cd59190612c60565b67ffffffffffffffff811115611d14577f4e487b7100000000000000000000000000000000000000000000000000000000600052604160045260246000fd5b6040519080825280601f01601f191660200182016040528015611d465781602001600182028036833780820191505090505b5090507f300000000000000000000000000000000000000000000000000000000000000081600081518110611da4577f4e487b7100000000000000000000000000000000000000000000000000000000600052603260045260246000fd5b60200101907effffffffffffffffffffffffffffffffffffffffffffffffffffffffffffff1916908160001a9053507f780000000000000000000000000000000000000000000000000000000000000081600181518110611e2e577f4e487b7100000000000000000000000000000000000000000000000000000000600052603260045260246000fd5b60200101907effffffffffffffffffffffffffffffffffffffffffffffffffffffffffffff1916908160001a90535060006001846002611e6e9190612cb6565b611e789190612c60565b90505b6001811115611f64577f3031323334353637383961626364656600000000000000000000000000000000600f861660108110611ee0577f4e487b7100000000000000000000000000000000000000000000000000000000600052603260045260246000fd5b1a60f81b828281518110611f1d577f4e487b7100000000000000000000000000000000000000000000000000000000600052603260045260246000fd5b60200101907effffffffffffffffffffffffffffffffffffffffffffffffffffffffffffff1916908160001a905350600485901c945080611f5d90612e02565b9050611e7b565b5060008414611fa8576040517f08c379a0000000000000000000000000000000000000000000000000000000008152600401611f9f906129a3565b60405180910390fd5b8091505092915050565b611fbc8282610cce565b1561208f57600080600084815260200190815260200160002060000160008373ffffffffffffffffffffffffffffffffffffffff1673ffffffffffffffffffffffffffffffffffffffff16815260200190815260200160002060006101000a81548160ff0219169083151502179055506120346111bf565b73ffffffffffffffffffffffffffffffffffffffff168173ffffffffffffffffffffffffffffffffffffffff16837ff6391f5c32d9c69d2a47ea670b442974b53935d1edc7fd64eb21e047a839171b60405160405180910390a45b5050565b60006120bb836000018373ffffffffffffffffffffffffffffffffffffffff1660001b6121a0565b905092915050565b6000826000018281548110612101577f4e487b7100000000000000000000000000000000000000000000000000000000600052603260045260246000fd5b9060005260206000200154905092915050565b600081600001805490509050919050565b600080836001016000848152602001908152602001600020541415905092915050565b612153838383612326565b61215b610b32565b1561219b576040517f08c379a000000000000000000000000000000000000000000000000000000000815260040161219290612be3565b60405180910390fd5b505050565b6000808360010160008481526020019081526020016000205490506000811461231a5760006001826121d29190612d10565b90506000600186600001805490506121ea9190612d10565b90508181146122a5576000866000018281548110612231577f4e487b7100000000000000000000000000000000000000000000000000000000600052603260045260246000fd5b906000526020600020015490508087600001848154811061227b577f4e487b7100000000000000000000000000000000000000000000000000000000600052603260045260246000fd5b90600052602060002001819055508387600101600083815260200190815260200160002081905550505b856000018054806122df577f4e487b7100000000000000000000000000000000000000000000000000000000600052603160045260246000fd5b600190038181906000526020600020016000905590558560010160008681526020019081526020016000206000905560019350505050612320565b60009150505b92915050565b505050565b60008135905061233a81613464565b92915050565b60008135905061234f8161347b565b92915050565b60008135905061236481613492565b92915050565b600081359050612379816134a9565b92915050565b60006020828403121561239157600080fd5b600061239f8482850161232b565b91505092915050565b600080604083850312156123bb57600080fd5b60006123c98582860161232b565b92505060206123da8582860161232b565b9150509250929050565b6000806000606084860312156123f957600080fd5b60006124078682870161232b565b93505060206124188682870161232b565b92505060406124298682870161236a565b9150509250925092565b6000806040838503121561244657600080fd5b60006124548582860161232b565b92505060206124658582860161236a565b9150509250929050565b60006020828403121561248157600080fd5b600061248f84828501612340565b91505092915050565b600080604083850312156124ab57600080fd5b60006124b985828601612340565b92505060206124ca8582860161232b565b9150509250929050565b600080604083850312156124e757600080fd5b60006124f585828601612340565b92505060206125068582860161236a565b9150509250929050565b60006020828403121561252257600080fd5b600061253084828501612355565b91505092915050565b60006020828403121561254b57600080fd5b60006125598482850161236a565b91505092915050565b61256b81612d44565b82525050565b61257a81612d56565b82525050565b61258981612d62565b82525050565b600061259a82612c39565b6125a48185612c44565b93506125b4818560208601612dcf565b6125bd81612ebc565b840191505092915050565b60006125d382612c39565b6125dd8185612c55565b93506125ed818560208601612dcf565b80840191505092915050565b6000612606602083612c44565b915061261182612ecd565b602082019050919050565b6000612629602383612c44565b915061263482612ef6565b604082019050919050565b600061264c601483612c44565b915061265782612f45565b602082019050919050565b600061266f602283612c44565b915061267a82612f6e565b604082019050919050565b6000612692603983612c44565b915061269d82612fbd565b604082019050919050565b60006126b5602283612c44565b91506126c08261300c565b604082019050919050565b60006126d8602683612c44565b91506126e38261305b565b604082019050919050565b60006126fb601083612c44565b9150612706826130aa565b602082019050919050565b600061271e602883612c44565b9150612729826130d3565b604082019050919050565b6000612741603683612c44565b915061274c82613122565b604082019050919050565b6000612764602483612c44565b915061276f82613171565b604082019050919050565b6000612787602183612c44565b9150612792826131c0565b604082019050919050565b60006127aa602583612c44565b91506127b58261320f565b604082019050919050565b60006127cd602483612c44565b91506127d88261325e565b604082019050919050565b60006127f0603783612c44565b91506127fb826132ad565b604082019050919050565b6000612813601783612c55565b915061281e826132fc565b601782019050919050565b6000612836602583612c44565b915061284182613325565b604082019050919050565b6000612859601183612c55565b915061286482613374565b601182019050919050565b600061287c602f83612c44565b91506128878261339d565b604082019050919050565b600061289f601f83612c44565b91506128aa826133ec565b602082019050919050565b60006128c2602a83612c44565b91506128cd82613415565b604082019050919050565b6128e181612db8565b82525050565b6128f081612dc2565b82525050565b600061290182612806565b915061290d82856125c8565b91506129188261284c565b915061292482846125c8565b91508190509392505050565b60006020820190506129456000830184612562565b92915050565b60006020820190506129606000830184612571565b92915050565b600060208201905061297b6000830184612580565b92915050565b6000602082019050818103600083015261299b818461258f565b905092915050565b600060208201905081810360008301526129bc816125f9565b9050919050565b600060208201905081810360008301526129dc8161261c565b9050919050565b600060208201905081810360008301526129fc8161263f565b9050919050565b60006020820190508181036000830152612a1c81612662565b9050919050565b60006020820190508181036000830152612a3c81612685565b9050919050565b60006020820190508181036000830152612a5c816126a8565b9050919050565b60006020820190508181036000830152612a7c816126cb565b9050919050565b60006020820190508181036000830152612a9c816126ee565b9050919050565b60006020820190508181036000830152612abc81612711565b9050919050565b60006020820190508181036000830152612adc81612734565b9050919050565b60006020820190508181036000830152612afc81612757565b9050919050565b60006020820190508181036000830152612b1c8161277a565b9050919050565b60006020820190508181036000830152612b3c8161279d565b9050919050565b60006020820190508181036000830152612b5c816127c0565b9050919050565b60006020820190508181036000830152612b7c816127e3565b9050919050565b60006020820190508181036000830152612b9c81612829565b9050919050565b60006020820190508181036000830152612bbc8161286f565b9050919050565b60006020820190508181036000830152612bdc81612892565b9050919050565b60006020820190508181036000830152612bfc816128b5565b9050919050565b6000602082019050612c1860008301846128d8565b92915050565b6000602082019050612c3360008301846128e7565b92915050565b600081519050919050565b600082825260208201905092915050565b600081905092915050565b6000612c6b82612db8565b9150612c7683612db8565b9250827fffffffffffffffffffffffffffffffffffffffffffffffffffffffffffffffff03821115612cab57612caa612e5e565b5b828201905092915050565b6000612cc182612db8565b9150612ccc83612db8565b9250817fffffffffffffffffffffffffffffffffffffffffffffffffffffffffffffffff0483118215151615612d0557612d04612e5e565b5b828202905092915050565b6000612d1b82612db8565b9150612d2683612db8565b925082821015612d3957612d38612e5e565b5b828203905092915050565b6000612d4f82612d98565b9050919050565b60008115159050919050565b6000819050919050565b60007fffffffff0000000000000000000000000000000000000000000000000000000082169050919050565b600073ffffffffffffffffffffffffffffffffffffffff82169050919050565b6000819050919050565b600060ff82169050919050565b60005b83811015612ded578082015181840152602081019050612dd2565b83811115612dfc576000848401525b50505050565b6000612e0d82612db8565b91506000821415612e2157612e20612e5e565b5b600182039050919050565b60006002820490506001821680612e4457607f821691505b60208210811415612e5857612e57612e8d565b5b50919050565b7f4e487b7100000000000000000000000000000000000000000000000000000000600052601160045260246000fd5b7f4e487b7100000000000000000000000000000000000000000000000000000000600052602260045260246000fd5b6000601f19601f8301169050919050565b7f537472696e67733a20686578206c656e67746820696e73756666696369656e74600082015250565b7f45524332303a207472616e7366657220746f20746865207a65726f206164647260008201527f6573730000000000000000000000000000000000000000000000000000000000602082015250565b7f5061757361626c653a206e6f7420706175736564000000000000000000000000600082015250565b7f45524332303a206275726e20616d6f756e7420657863656564732062616c616e60008201527f6365000000000000000000000000000000000000000000000000000000000000602082015250565b7f45524332305072657365744d696e7465725061757365723a206d75737420686160008201527f76652070617573657220726f6c6520746f20756e706175736500000000000000602082015250565b7f45524332303a20617070726f766520746f20746865207a65726f20616464726560008201527f7373000000000000000000000000000000000000000000000000000000000000602082015250565b7f45524332303a207472616e7366657220616d6f756e742065786365656473206260008201527f616c616e63650000000000000000000000000000000000000000000000000000602082015250565b7f5061757361626c653a2070617573656400000000000000000000000000000000600082015250565b7f45524332303a207472616e7366657220616d6f756e742065786365656473206160008201527f6c6c6f77616e6365000000000000000000000000000000000000000000000000602082015250565b7f45524332305072657365744d696e7465725061757365723a206d75737420686160008201527f7665206d696e74657220726f6c6520746f206d696e7400000000000000000000602082015250565b7f45524332303a206275726e20616d6f756e74206578636565647320616c6c6f7760008201527f616e636500000000000000000000000000000000000000000000000000000000602082015250565b7f45524332303a206275726e2066726f6d20746865207a65726f2061646472657360008201527f7300000000000000000000000000000000000000000000000000000000000000602082015250565b7f45524332303a207472616e736665722066726f6d20746865207a65726f20616460008201527f6472657373000000000000000000000000000000000000000000000000000000602082015250565b7f45524332303a20617070726f76652066726f6d20746865207a65726f2061646460008201527f7265737300000000000000000000000000000000000000000000000000000000602082015250565b7f45524332305072657365744d696e7465725061757365723a206d75737420686160008201527f76652070617573657220726f6c6520746f207061757365000000000000000000602082015250565b7f416363657373436f6e74726f6c3a206163636f756e7420000000000000000000600082015250565b7f45524332303a2064656372656173656420616c6c6f77616e63652062656c6f7760008201527f207a65726f000000000000000000000000000000000000000000000000000000602082015250565b7f206973206d697373696e6720726f6c6520000000000000000000000000000000600082015250565b7f416363657373436f6e74726f6c3a2063616e206f6e6c792072656e6f756e636560008201527f20726f6c657320666f722073656c660000000000000000000000000000000000602082015250565b7f45524332303a206d696e7420746f20746865207a65726f206164647265737300600082015250565b7f45524332305061757361626c653a20746f6b656e207472616e7366657220776860008201527f696c652070617573656400000000000000000000000000000000000000000000602082015250565b61346d81612d44565b811461347857600080fd5b50565b61348481612d62565b811461348f57600080fd5b50565b61349b81612d6c565b81146134a657600080fd5b50565b6134b281612db8565b81146134bd57600080fd5b5056fea2646970667358221220b62465227fd4bf3fc54eef6b3328f22ab61562b49147f27f2048e1f9ad06b81764736f6c63430008040033a26469706673582212207b7b7caa0c4cdc6a0a2b6744e8d69f1e1f6b5c4fc3ebb244dd06dc5368e9e63764736f6c63430008040033",
    "linkReferences": {},
    "deployedLinkReferences": {}
}