{
    "_format": "hh-sol-artifact-1",
    "contractName": "BlockbellyComponentRegistry",
    "sourceName": "contracts/BlockbellyRegistry.sol",
    "abi": [
        {
            "anonymous": false,
            "inputs": [
                {
                    "indexed": true,
                    "internalType": "address",
                    "name": "previousOwner",
                    "type": "address"
                },
                {
                    "indexed": true,
                    "internalType": "address",
                    "name": "newOwner",
                    "type": "address"
                }
            ],
            "name": "OwnershipTransferred",
            "type": "event"
        },
        {
            "inputs": [
                {
                    "internalType": "string",
                    "name": "_name",
                    "type": "string"
                }
            ],
            "name": "getComponentDetails",
            "outputs": [
                {
                    "internalType": "address",
                    "name": "",
                    "type": "address"
                },
                {
                    "internalType": "uint16",
                    "name": "",
                    "type": "uint16"
                }
            ],
            "stateMutability": "view",
            "type": "function"
        },
        {
            "inputs": [],
            "name": "owner",
            "outputs": [
                {
                    "internalType": "address",
                    "name": "",
                    "type": "address"
                }
            ],
            "stateMutability": "view",
            "type": "function"
        },
        {
            "inputs": [
                {
                    "internalType": "string",
                    "name": "_name",
                    "type": "string"
                },
                {
                    "internalType": "address",
                    "name": "_addr",
                    "type": "address"
                },
                {
                    "internalType": "uint16",
                    "name": "_version",
                    "type": "uint16"
                }
            ],
            "name": "registerComponent",
            "outputs": [
                {
                    "internalType": "bool",
                    "name": "",
                    "type": "bool"
                }
            ],
            "stateMutability": "nonpayable",
            "type": "function"
        },
        {
            "inputs": [],
            "name": "renounceOwnership",
            "outputs": [],
            "stateMutability": "nonpayable",
            "type": "function"
        },
        {
            "inputs": [
                {
                    "internalType": "address",
                    "name": "newOwner",
                    "type": "address"
                }
            ],
            "name": "transferOwnership",
            "outputs": [],
            "stateMutability": "nonpayable",
            "type": "function"
        }
    ],
    "bytecode": "0x608060405234801561001057600080fd5b5061002d61002261003260201b60201c565b61003a60201b60201c565b6100fe565b600033905090565b60008060009054906101000a900473ffffffffffffffffffffffffffffffffffffffff169050816000806101000a81548173ffffffffffffffffffffffffffffffffffffffff021916908373ffffffffffffffffffffffffffffffffffffffff1602179055508173ffffffffffffffffffffffffffffffffffffffff168173ffffffffffffffffffffffffffffffffffffffff167f8be0079c531659141344cd1fd0a4f28419497f9722a3daafe3b4186f6b6457e060405160405180910390a35050565b610c498061010d6000396000f3fe608060405234801561001057600080fd5b50600436106100575760003560e01c806349a0b0b11461005c578063715018a61461008d5780638da5cb5b146100975780638edb2c58146100b5578063f2fde38b146100e5575b600080fd5b610076600480360381019061007191906107ef565b610101565b60405161008492919061096d565b60405180910390f35b61009561017f565b005b61009f610207565b6040516100ac9190610952565b60405180910390f35b6100cf60048036038101906100ca9190610830565b610230565b6040516100dc9190610996565b60405180910390f35b6100ff60048036038101906100fa91906107c6565b610570565b005b600080600183604051610114919061093b565b908152602001604051809103902060010160009054906101000a900473ffffffffffffffffffffffffffffffffffffffff16600184604051610156919061093b565b908152602001604051809103902060010160149054906101000a900461ffff1691509150915091565b610187610668565b73ffffffffffffffffffffffffffffffffffffffff166101a5610207565b73ffffffffffffffffffffffffffffffffffffffff16146101fb576040517f08c379a00000000000000000000000000000000000000000000000000000000081526004016101f2906109d1565b60405180910390fd5b6102056000610670565b565b60008060009054906101000a900473ffffffffffffffffffffffffffffffffffffffff16905090565b600061023a610668565b73ffffffffffffffffffffffffffffffffffffffff16610258610207565b73ffffffffffffffffffffffffffffffffffffffff16146102ae576040517f08c379a00000000000000000000000000000000000000000000000000000000081526004016102a5906109d1565b60405180910390fd5b60018261ffff1610156102c057600080fd5b60006001856040516102d2919061093b565b90815260200160405180910390206040518060600160405290816000820160009054906101000a900473ffffffffffffffffffffffffffffffffffffffff1673ffffffffffffffffffffffffffffffffffffffff1673ffffffffffffffffffffffffffffffffffffffff1681526020016001820160009054906101000a900473ffffffffffffffffffffffffffffffffffffffff1673ffffffffffffffffffffffffffffffffffffffff1673ffffffffffffffffffffffffffffffffffffffff1681526020016001820160149054906101000a900461ffff1661ffff1661ffff16815250509050600073ffffffffffffffffffffffffffffffffffffffff16816020015173ffffffffffffffffffffffffffffffffffffffff1614156104445760405180606001604052803373ffffffffffffffffffffffffffffffffffffffff1681526020018573ffffffffffffffffffffffffffffffffffffffff1681526020018461ffff168152509050610491565b82816040019061ffff16908161ffff168152505083816020019073ffffffffffffffffffffffffffffffffffffffff16908173ffffffffffffffffffffffffffffffffffffffff16815250505b806001866040516104a2919061093b565b908152602001604051809103902060008201518160000160006101000a81548173ffffffffffffffffffffffffffffffffffffffff021916908373ffffffffffffffffffffffffffffffffffffffff16021790555060208201518160010160006101000a81548173ffffffffffffffffffffffffffffffffffffffff021916908373ffffffffffffffffffffffffffffffffffffffff16021790555060408201518160010160146101000a81548161ffff021916908361ffff16021790555090505060019150509392505050565b610578610668565b73ffffffffffffffffffffffffffffffffffffffff16610596610207565b73ffffffffffffffffffffffffffffffffffffffff16146105ec576040517f08c379a00000000000000000000000000000000000000000000000000000000081526004016105e3906109d1565b60405180910390fd5b600073ffffffffffffffffffffffffffffffffffffffff168173ffffffffffffffffffffffffffffffffffffffff16141561065c576040517f08c379a0000000000000000000000000000000000000000000000000000000008152600401610653906109b1565b60405180910390fd5b61066581610670565b50565b600033905090565b60008060009054906101000a900473ffffffffffffffffffffffffffffffffffffffff169050816000806101000a81548173ffffffffffffffffffffffffffffffffffffffff021916908373ffffffffffffffffffffffffffffffffffffffff1602179055508173ffffffffffffffffffffffffffffffffffffffff168173ffffffffffffffffffffffffffffffffffffffff167f8be0079c531659141344cd1fd0a4f28419497f9722a3daafe3b4186f6b6457e060405160405180910390a35050565b600061074761074284610a16565b6109f1565b90508281526020810184848401111561075f57600080fd5b61076a848285610aba565b509392505050565b60008135905061078181610be5565b92915050565b600082601f83011261079857600080fd5b81356107a8848260208601610734565b91505092915050565b6000813590506107c081610bfc565b92915050565b6000602082840312156107d857600080fd5b60006107e684828501610772565b91505092915050565b60006020828403121561080157600080fd5b600082013567ffffffffffffffff81111561081b57600080fd5b61082784828501610787565b91505092915050565b60008060006060848603121561084557600080fd5b600084013567ffffffffffffffff81111561085f57600080fd5b61086b86828701610787565b935050602061087c86828701610772565b925050604061088d868287016107b1565b9150509250925092565b6108a081610a6e565b82525050565b6108af81610a80565b82525050565b60006108c082610a47565b6108ca8185610a63565b93506108da818560208601610ac9565b80840191505092915050565b60006108f3602683610a52565b91506108fe82610b6d565b604082019050919050565b6000610916602083610a52565b915061092182610bbc565b602082019050919050565b61093581610a8c565b82525050565b600061094782846108b5565b915081905092915050565b60006020820190506109676000830184610897565b92915050565b60006040820190506109826000830185610897565b61098f602083018461092c565b9392505050565b60006020820190506109ab60008301846108a6565b92915050565b600060208201905081810360008301526109ca816108e6565b9050919050565b600060208201905081810360008301526109ea81610909565b9050919050565b60006109fb610a0c565b9050610a078282610afc565b919050565b6000604051905090565b600067ffffffffffffffff821115610a3157610a30610b2d565b5b610a3a82610b5c565b9050602081019050919050565b600081519050919050565b600082825260208201905092915050565b600081905092915050565b6000610a7982610a9a565b9050919050565b60008115159050919050565b600061ffff82169050919050565b600073ffffffffffffffffffffffffffffffffffffffff82169050919050565b82818337600083830152505050565b60005b83811015610ae7578082015181840152602081019050610acc565b83811115610af6576000848401525b50505050565b610b0582610b5c565b810181811067ffffffffffffffff82111715610b2457610b23610b2d565b5b80604052505050565b7f4e487b7100000000000000000000000000000000000000000000000000000000600052604160045260246000fd5b6000601f19601f8301169050919050565b7f4f776e61626c653a206e6577206f776e657220697320746865207a65726f206160008201527f6464726573730000000000000000000000000000000000000000000000000000602082015250565b7f4f776e61626c653a2063616c6c6572206973206e6f7420746865206f776e6572600082015250565b610bee81610a6e565b8114610bf957600080fd5b50565b610c0581610a8c565b8114610c1057600080fd5b5056fea2646970667358221220196678bd0d18eb840df9fe691449d2c4c265d47f1366ad8a22602f757a8144da64736f6c63430008040033",
    "linkReferences": {},
    "deployedLinkReferences": {}
}